{
  "contractName": "VeriChain",
  "abi": [
    {
      "constant": true,
      "inputs": [],
      "name": "count_hashes",
      "outputs": [
        {
          "name": "",
          "type": "uint16"
        }
      ],
      "payable": false,
      "stateMutability": "view",
      "type": "function"
    },
    {
      "constant": true,
      "inputs": [],
      "name": "count_Exporters",
      "outputs": [
        {
          "name": "",
          "type": "uint16"
        }
      ],
      "payable": false,
      "stateMutability": "view",
      "type": "function"
    },
    {
      "constant": true,
      "inputs": [],
      "name": "owner",
      "outputs": [
        {
          "name": "",
          "type": "address"
        }
      ],
      "payable": false,
      "stateMutability": "view",
      "type": "function"
    },
    {
      "inputs": [],
      "payable": false,
      "stateMutability": "nonpayable",
      "type": "constructor"
    },
    {
      "anonymous": false,
      "inputs": [
        {
          "indexed": true,
          "name": "_exporter",
          "type": "address"
        },
        {
          "indexed": false,
          "name": "_ipfsHash",
          "type": "string"
        }
      ],
      "name": "AddHash",
      "type": "event"
    },
    {
      "anonymous": false,
      "inputs": [
        {
          "indexed": true,
          "name": "_exporter",
          "type": "address"
        },
        {
          "indexed": false,
          "name": "_info",
          "type": "string"
        }
      ],
      "name": "ExporterAdded",
      "type": "event"
    },
    {
      "anonymous": false,
      "inputs": [
        {
          "indexed": true,
          "name": "_exporter",
          "type": "address"
        }
      ],
      "name": "ExporterRemoved",
      "type": "event"
    },
    {
      "anonymous": false,
      "inputs": [
        {
          "indexed": true,
          "name": "_exporter",
          "type": "address"
        },
        {
          "indexed": false,
          "name": "_newInfo",
          "type": "string"
        }
      ],
      "name": "ExporterModified",
      "type": "event"
    },
    {
      "anonymous": false,
      "inputs": [
        {
          "indexed": true,
          "name": "previousOwner",
          "type": "address"
        },
        {
          "indexed": true,
          "name": "newOwner",
          "type": "address"
        }
      ],
      "name": "OwnershipTransferred",
      "type": "event"
    },
    {
      "constant": false,
      "inputs": [
        {
          "name": "_add",
          "type": "address"
        },
        {
          "name": "_info",
          "type": "string"
        }
      ],
      "name": "add_Exporter",
      "outputs": [],
      "payable": false,
      "stateMutability": "nonpayable",
      "type": "function"
    },
    {
      "constant": false,
      "inputs": [
        {
          "name": "_add",
          "type": "address"
        }
      ],
      "name": "delete_Exporter",
      "outputs": [],
      "payable": false,
      "stateMutability": "nonpayable",
      "type": "function"
    },
    {
      "constant": false,
      "inputs": [
        {
          "name": "_add",
          "type": "address"
        },
        {
          "name": "_newInfo",
          "type": "string"
        }
      ],
      "name": "alter_Exporter",
      "outputs": [],
      "payable": false,
      "stateMutability": "nonpayable",
      "type": "function"
    },
    {
      "constant": false,
      "inputs": [
        {
          "name": "_newOwner",
          "type": "address"
        }
      ],
      "name": "changeOwner",
      "outputs": [],
      "payable": false,
      "stateMutability": "nonpayable",
      "type": "function"
    },
    {
      "constant": false,
      "inputs": [
        {
          "name": "_hash",
          "type": "bytes32"
        },
        {
          "name": "_ipfs",
          "type": "string"
        }
      ],
      "name": "addDocHash",
      "outputs": [],
      "payable": false,
      "stateMutability": "nonpayable",
      "type": "function"
    },
    {
      "constant": true,
      "inputs": [
        {
          "name": "_hash",
          "type": "bytes32"
        }
      ],
      "name": "findDocHash",
      "outputs": [
        {
          "name": "",
          "type": "uint256"
        },
        {
          "name": "",
          "type": "uint256"
        },
        {
          "name": "",
          "type": "string"
        },
        {
          "name": "",
          "type": "string"
        }
      ],
      "payable": false,
      "stateMutability": "view",
      "type": "function"
    },
    {
      "constant": false,
      "inputs": [
        {
          "name": "_hash",
          "type": "bytes32"
        }
      ],
      "name": "deleteHash",
      "outputs": [],
      "payable": false,
      "stateMutability": "nonpayable",
      "type": "function"
    },
    {
      "constant": true,
      "inputs": [
        {
          "name": "_add",
          "type": "address"
        }
      ],
      "name": "getExporterInfo",
      "outputs": [
        {
          "name": "",
          "type": "string"
        }
      ],
      "payable": false,
      "stateMutability": "view",
      "type": "function"
    },
    {
      "constant": true,
      "inputs": [
        {
          "name": "_add",
          "type": "address"
        }
      ],
      "name": "isExporter",
      "outputs": [
        {
          "name": "",
          "type": "bool"
        }
      ],
      "payable": false,
      "stateMutability": "view",
      "type": "function"
    },
    {
      "constant": true,
      "inputs": [],
      "name": "getStats",
      "outputs": [
        {
          "name": "",
          "type": "uint16"
        },
        {
          "name": "",
          "type": "uint16"
        }
      ],
      "payable": false,
      "stateMutability": "view",
      "type": "function"
    },
    {
      "constant": true,
      "inputs": [
        {
          "name": "_hash",
          "type": "bytes32"
        }
      ],
      "name": "documentExists",
      "outputs": [
        {
          "name": "",
          "type": "bool"
        }
      ],
      "payable": false,
      "stateMutability": "view",
      "type": "function"
    }
  ],
  "bytecode": "0x608060405260008060146101000a81548161ffff021916908361ffff16021790555060008060166101000a81548161ffff021916908361ffff16021790555034801561004a57600080fd5b50336000806101000a81548173ffffffffffffffffffffffffffffffffffffffff021916908373ffffffffffffffffffffffffffffffffffffffff1602179055506124d48061009a6000396000f3fe6080604052600436106100ca576000357c01000000000000000000000000000000000000000000000000000000009004806305c8dc19146100cf57806324ac89cb1461019957806343f6f548146101ea5780634cf00d3f1461021d578063505cd5d01461034b57806363f0bfce146104335780636ed73e481461046e5780638da5cb5b146104a1578063a6f9dae1146104f8578063bf3ccf4814610549578063c59d48471461061b578063cbfe6d411461065d578063cf3457bf146106b0578063dc5610ed14610798575b600080fd5b3480156100db57600080fd5b5061011e600480360360208110156100f257600080fd5b81019080803573ffffffffffffffffffffffffffffffffffffffff169060200190929190505050610801565b6040518080602001828103825283818151815260200191508051906020019080838360005b8381101561015e578082015181840152602081019050610143565b50505050905090810190601f16801561018b5780820380516001836020036101000a031916815260200191505b509250505060405180910390f35b3480156101a557600080fd5b506101e8600480360360208110156101bc57600080fd5b81019080803573ffffffffffffffffffffffffffffffffffffffff1690602001909291905050506108e5565b005b3480156101f657600080fd5b506101ff610c36565b604051808261ffff1661ffff16815260200191505060405180910390f35b34801561022957600080fd5b506102566004803603602081101561024057600080fd5b8101908080359060200190929190505050610c4a565b604051808581526020018481526020018060200180602001838103835285818151815260200191508051906020019080838360005b838110156102a657808201518184015260208101905061028b565b50505050905090810190601f1680156102d35780820380516001836020036101000a031916815260200191505b50838103825284818151815260200191508051906020019080838360005b8381101561030c5780820151818401526020810190506102f1565b50505050905090810190601f1680156103395780820380516001836020036101000a031916815260200191505b50965050505050505060405180910390f35b34801561035757600080fd5b506104316004803603604081101561036e57600080fd5b81019080803573ffffffffffffffffffffffffffffffffffffffff169060200190929190803590602001906401000000008111156103ab57600080fd5b8201836020820111156103bd57600080fd5b803590602001918460018302840111640100000000831117156103df57600080fd5b91908080601f016020809104026020016040519081016040528093929190818152602001838380828437600081840152601f19601f820116905080830192505050505050509192919290505050610dfb565b005b34801561043f57600080fd5b5061046c6004803603602081101561045657600080fd5b81019080803590602001909291905050506111a8565b005b34801561047a57600080fd5b50610483611662565b604051808261ffff1661ffff16815260200191505060405180910390f35b3480156104ad57600080fd5b506104b6611676565b604051808273ffffffffffffffffffffffffffffffffffffffff1673ffffffffffffffffffffffffffffffffffffffff16815260200191505060405180910390f35b34801561050457600080fd5b506105476004803603602081101561051b57600080fd5b81019080803573ffffffffffffffffffffffffffffffffffffffff16906020019092919050505061169b565b005b34801561055557600080fd5b506106196004803603604081101561056c57600080fd5b81019080803590602001909291908035906020019064010000000081111561059357600080fd5b8201836020820111156105a557600080fd5b803590602001918460018302840111640100000000831117156105c757600080fd5b91908080601f016020809104026020016040519081016040528093929190818152602001838380828437600081840152601f19601f8201169050808301925050505050505091929192905050506119b5565b005b34801561062757600080fd5b50610630611e93565b604051808361ffff1661ffff1681526020018261ffff1661ffff1681526020019250505060405180910390f35b34801561066957600080fd5b506106966004803603602081101561068057600080fd5b8101908080359060200190929190505050611ec0565b604051808215151515815260200191505060405180910390f35b3480156106bc57600080fd5b50610796600480360360408110156106d357600080fd5b81019080803573ffffffffffffffffffffffffffffffffffffffff1690602001909291908035906020019064010000000081111561071057600080fd5b82018360208201111561072257600080fd5b8035906020019184600183028401116401000000008311171561074457600080fd5b91908080601f016020809104026020016040519081016040528093929190818152602001838380828437600081840152601f19601f820116905080830192505050505050509192919290505050611ee3565b005b3480156107a457600080fd5b506107e7600480360360208110156107bb57600080fd5b81019080803573ffffffffffffffffffffffffffffffffffffffff16906020019092919050505061230b565b604051808215151515815260200191505060405180910390f35b6060600260008373ffffffffffffffffffffffffffffffffffffffff1673ffffffffffffffffffffffffffffffffffffffff1681526020019081526020016000206001018054600181600116156101000203166002900480601f0160208091040260200160405190810160405280929190818152602001828054600181600116156101000203166002900480156108d95780601f106108ae576101008083540402835291602001916108d9565b820191906000526020600020905b8154815290600101906020018083116108bc57829003601f168201915b50505050509050919050565b6000809054906101000a900473ffffffffffffffffffffffffffffffffffffffff1673ffffffffffffffffffffffffffffffffffffffff163373ffffffffffffffffffffffffffffffffffffffff161415156109a9576040517f08c379a00000000000000000000000000000000000000000000000000000000081526004018080602001828103825260178152602001807f43616c6c6572206973206e6f7420746865206f776e657200000000000000000081525060200191505060405180910390fd5b80600073ffffffffffffffffffffffffffffffffffffffff168173ffffffffffffffffffffffffffffffffffffffff1614151515610a4f576040517f08c379a000000000000000000000000000000000000000000000000000000000815260040180806020018281038252600f8152602001807f496e76616c69642061646472657373000000000000000000000000000000000081525060200191505060405180910390fd5b6000600260008473ffffffffffffffffffffffffffffffffffffffff1673ffffffffffffffffffffffffffffffffffffffff1681526020019081526020016000206000015414151515610b0a576040517f08c379a00000000000000000000000000000000000000000000000000000000081526004018080602001828103825260178152602001807f4578706f7274657220646f6573206e6f7420657869737400000000000000000081525060200191505060405180910390fd5b6000600260008473ffffffffffffffffffffffffffffffffffffffff1673ffffffffffffffffffffffffffffffffffffffff168152602001908152602001600020600001819055506020604051908101604052806000815250600260008473ffffffffffffffffffffffffffffffffffffffff1673ffffffffffffffffffffffffffffffffffffffff1681526020019081526020016000206001019080519060200190610bb892919061235a565b506000601481819054906101000a900461ffff16809291906001900391906101000a81548161ffff021916908361ffff160217905550508173ffffffffffffffffffffffffffffffffffffffff167f3e63bb3af59e4ad5151cd408a5208ed9a0d6574c8c575d280c95723d20f53e9c60405160405180910390a25050565b600060169054906101000a900461ffff1681565b600080606080610c586123da565b60016000878152602001908152602001600020608060405190810160405290816000820154815260200160018201548152602001600282018054600181600116156101000203166002900480601f016020809104026020016040519081016040528092919081815260200182805460018160011615610100020316600290048015610d245780601f10610cf957610100808354040283529160200191610d24565b820191906000526020600020905b815481529060010190602001808311610d0757829003601f168201915b50505050508152602001600382018054600181600116156101000203166002900480601f016020809104026020016040519081016040528092919081815260200182805460018160011615610100020316600290048015610dc65780601f10610d9b57610100808354040283529160200191610dc6565b820191906000526020600020905b815481529060010190602001808311610da957829003601f168201915b505050505081525050905080600001518160200151826040015183606001518191508090509450945094509450509193509193565b6000809054906101000a900473ffffffffffffffffffffffffffffffffffffffff1673ffffffffffffffffffffffffffffffffffffffff163373ffffffffffffffffffffffffffffffffffffffff16141515610ebf576040517f08c379a00000000000000000000000000000000000000000000000000000000081526004018080602001828103825260178152602001807f43616c6c6572206973206e6f7420746865206f776e657200000000000000000081525060200191505060405180910390fd5b81600073ffffffffffffffffffffffffffffffffffffffff168173ffffffffffffffffffffffffffffffffffffffff1614151515610f65576040517f08c379a000000000000000000000000000000000000000000000000000000000815260040180806020018281038252600f8152602001807f496e76616c69642061646472657373000000000000000000000000000000000081525060200191505060405180910390fd5b6000600260008573ffffffffffffffffffffffffffffffffffffffff1673ffffffffffffffffffffffffffffffffffffffff1681526020019081526020016000206000015414151515611020576040517f08c379a00000000000000000000000000000000000000000000000000000000081526004018080602001828103825260178152602001807f4578706f7274657220646f6573206e6f7420657869737400000000000000000081525060200191505060405180910390fd5b60008251111515611099576040517f08c379a000000000000000000000000000000000000000000000000000000000815260040180806020018281038252601d8152602001807f4578706f7274657220696e666f2063616e6e6f7420626520656d70747900000081525060200191505060405180910390fd5b81600260008573ffffffffffffffffffffffffffffffffffffffff1673ffffffffffffffffffffffffffffffffffffffff16815260200190815260200160002060010190805190602001906110ef92919061235a565b508273ffffffffffffffffffffffffffffffffffffffff167f6770b07f37fb15489130a27e5dbb08b18243b2ddc90755f607db9fc97f160c87836040518080602001828103825283818151815260200191508051906020019080838360005b8381101561116957808201518184015260208101905061114e565b50505050905090810190601f1680156111965780820380516001836020036101000a031916815260200191505b509250505060405180910390a2505050565b8060016000828152602001908152602001600020600201604051602001808280546001816001161561010002031660029004801561121d5780601f106111fb57610100808354040283529182019161121d565b820191906000526020600020905b815481529060010190602001808311611209575b505091505060405160208183030381529060405280519060200120600260003373ffffffffffffffffffffffffffffffffffffffff1673ffffffffffffffffffffffffffffffffffffffff16815260200190815260200160002060010160405160200180828054600181600116156101000203166002900480156112d85780601f106112b65761010080835404028352918201916112d8565b820191906000526020600020905b8154815290600101906020018083116112c4575b50509150506040516020818303038152906040528051906020012014151561138e576040517f08c379a000000000000000000000000000000000000000000000000000000000815260040180806020018281038252602e8152602001807f43616c6c6572206973206e6f7420617574686f726973656420746f206564697481526020017f207468697320646f63756d656e7400000000000000000000000000000000000081525060400191505060405180910390fd5b6000600260003373ffffffffffffffffffffffffffffffffffffffff1673ffffffffffffffffffffffffffffffffffffffff168152602001908152602001600020600001541415151561146f576040517f08c379a00000000000000000000000000000000000000000000000000000000081526004018080602001828103825260268152602001807f43616c6c6572206e6f7420617574686f726973656420746f2061646420646f6381526020017f756d656e7473000000000000000000000000000000000000000000000000000081525060400191505060405180910390fd5b60006001600084815260200190815260200160002060010154141515156114fe576040517f08c379a00000000000000000000000000000000000000000000000000000000081526004018080602001828103825260178152602001807f446f63756d656e7420646f6573206e6f7420657869737400000000000000000081525060200191505060405180910390fd5b6000600102821415151561157a576040517f08c379a00000000000000000000000000000000000000000000000000000000081526004018080602001828103825260148152602001807f486173682063616e6e6f7420626520656d70747900000000000000000000000081525060200191505060405180910390fd5b600060016000848152602001908152602001600020600001819055506000600160008481526020019081526020016000206001018190555060206040519081016040528060008152506001600084815260200190815260200160002060020190805190602001906115ec92919061235a565b50602060405190810160405280600081525060016000848152602001908152602001600020600301908051906020019061162792919061235a565b506000601681819054906101000a900461ffff16809291906001900391906101000a81548161ffff021916908361ffff160217905550505050565b600060149054906101000a900461ffff1681565b6000809054906101000a900473ffffffffffffffffffffffffffffffffffffffff1681565b6000809054906101000a900473ffffffffffffffffffffffffffffffffffffffff1673ffffffffffffffffffffffffffffffffffffffff163373ffffffffffffffffffffffffffffffffffffffff1614151561175f576040517f08c379a00000000000000000000000000000000000000000000000000000000081526004018080602001828103825260178152602001807f43616c6c6572206973206e6f7420746865206f776e657200000000000000000081525060200191505060405180910390fd5b80600073ffffffffffffffffffffffffffffffffffffffff168173ffffffffffffffffffffffffffffffffffffffff1614151515611805576040517f08c379a000000000000000000000000000000000000000000000000000000000815260040180806020018281038252600f8152602001807f496e76616c69642061646472657373000000000000000000000000000000000081525060200191505060405180910390fd5b6000809054906101000a900473ffffffffffffffffffffffffffffffffffffffff1673ffffffffffffffffffffffffffffffffffffffff168273ffffffffffffffffffffffffffffffffffffffff16141515156118f0576040517f08c379a000000000000000000000000000000000000000000000000000000000815260040180806020018281038252602e8152602001807f4e6577206f776e6572206d75737420626520646966666572656e742066726f6d81526020017f2063757272656e74206f776e657200000000000000000000000000000000000081525060400191505060405180910390fd5b60008060009054906101000a900473ffffffffffffffffffffffffffffffffffffffff169050826000806101000a81548173ffffffffffffffffffffffffffffffffffffffff021916908373ffffffffffffffffffffffffffffffffffffffff1602179055508273ffffffffffffffffffffffffffffffffffffffff168173ffffffffffffffffffffffffffffffffffffffff167f8be0079c531659141344cd1fd0a4f28419497f9722a3daafe3b4186f6b6457e060405160405180910390a3505050565b6000600260003373ffffffffffffffffffffffffffffffffffffffff1673ffffffffffffffffffffffffffffffffffffffff1681526020019081526020016000206000015414151515611a96576040517f08c379a00000000000000000000000000000000000000000000000000000000081526004018080602001828103825260268152602001807f43616c6c6572206e6f7420617574686f726973656420746f2061646420646f6381526020017f756d656e7473000000000000000000000000000000000000000000000000000081525060400191505060405180910390fd5b60006001028214151515611b12576040517f08c379a00000000000000000000000000000000000000000000000000000000081526004018080602001828103825260148152602001807f486173682063616e6e6f7420626520656d70747900000000000000000000000081525060200191505060405180910390fd5b60008151111515611b8b576040517f08c379a00000000000000000000000000000000000000000000000000000000081526004018080602001828103825260198152602001807f4950465320686173682063616e6e6f7420626520656d7074790000000000000081525060200191505060405180910390fd5b60006001600084815260200190815260200160002060000154148015611bc7575060006001600084815260200190815260200160002060010154145b1515611c3b576040517f08c379a00000000000000000000000000000000000000000000000000000000081526004018080602001828103825260138152602001807f4861736820616c7265616479206578697374730000000000000000000000000081525060200191505060405180910390fd5b611c436123da565b608060405190810160405280438152602001428152602001600260003373ffffffffffffffffffffffffffffffffffffffff1673ffffffffffffffffffffffffffffffffffffffff1681526020019081526020016000206001018054600181600116156101000203166002900480601f016020809104026020016040519081016040528092919081815260200182805460018160011615610100020316600290048015611d315780601f10611d0657610100808354040283529160200191611d31565b820191906000526020600020905b815481529060010190602001808311611d1457829003601f168201915b50505050508152602001838152509050806001600085815260200190815260200160002060008201518160000155602082015181600101556040820151816002019080519060200190611d85929190612403565b506060820151816003019080519060200190611da2929190612403565b509050506000601681819054906101000a900461ffff168092919060010191906101000a81548161ffff021916908361ffff160217905550503373ffffffffffffffffffffffffffffffffffffffff167f42db1418459a4104bd694454330c69ef6e28a01ea57974c129dcbac8e8dd1412836040518080602001828103825283818151815260200191508051906020019080838360005b83811015611e54578082015181840152602081019050611e39565b50505050905090810190601f168015611e815780820380516001836020036101000a031916815260200191505b509250505060405180910390a2505050565b600080600060149054906101000a900461ffff16600060169054906101000a900461ffff16915091509091565b600080600160008481526020019081526020016000206001015414159050919050565b6000809054906101000a900473ffffffffffffffffffffffffffffffffffffffff1673ffffffffffffffffffffffffffffffffffffffff163373ffffffffffffffffffffffffffffffffffffffff16141515611fa7576040517f08c379a00000000000000000000000000000000000000000000000000000000081526004018080602001828103825260178152602001807f43616c6c6572206973206e6f7420746865206f776e657200000000000000000081525060200191505060405180910390fd5b81600073ffffffffffffffffffffffffffffffffffffffff168173ffffffffffffffffffffffffffffffffffffffff161415151561204d576040517f08c379a000000000000000000000000000000000000000000000000000000000815260040180806020018281038252600f8152602001807f496e76616c69642061646472657373000000000000000000000000000000000081525060200191505060405180910390fd5b6000600260008573ffffffffffffffffffffffffffffffffffffffff1673ffffffffffffffffffffffffffffffffffffffff16815260200190815260200160002060000154141515612107576040517f08c379a00000000000000000000000000000000000000000000000000000000081526004018080602001828103825260178152602001807f4578706f7274657220616c72656164792065786973747300000000000000000081525060200191505060405180910390fd5b60008251111515612180576040517f08c379a000000000000000000000000000000000000000000000000000000000815260040180806020018281038252601d8152602001807f4578706f7274657220696e666f2063616e6e6f7420626520656d70747900000081525060200191505060405180910390fd5b43600260008573ffffffffffffffffffffffffffffffffffffffff1673ffffffffffffffffffffffffffffffffffffffff1681526020019081526020016000206000018190555081600260008573ffffffffffffffffffffffffffffffffffffffff1673ffffffffffffffffffffffffffffffffffffffff168152602001908152602001600020600101908051906020019061221d92919061235a565b506000601481819054906101000a900461ffff168092919060010191906101000a81548161ffff021916908361ffff160217905550508273ffffffffffffffffffffffffffffffffffffffff167fcde7502400e6b4841ab80d5acc888f0b11ee1f8071eb84f530e6fb27c3dcf5fa836040518080602001828103825283818151815260200191508051906020019080838360005b838110156122cc5780820151818401526020810190506122b1565b50505050905090810190601f1680156122f95780820380516001836020036101000a031916815260200191505b509250505060405180910390a2505050565b600080600260008473ffffffffffffffffffffffffffffffffffffffff1673ffffffffffffffffffffffffffffffffffffffff1681526020019081526020016000206000015414159050919050565b828054600181600116156101000203166002900490600052602060002090601f016020900481019282601f1061239b57805160ff19168380011785556123c9565b828001600101855582156123c9579182015b828111156123c85782518255916020019190600101906123ad565b5b5090506123d69190612483565b5090565b608060405190810160405280600081526020016000815260200160608152602001606081525090565b828054600181600116156101000203166002900490600052602060002090601f016020900481019282601f1061244457805160ff1916838001178555612472565b82800160010185558215612472579182015b82811115612471578251825591602001919060010190612456565b5b50905061247f9190612483565b5090565b6124a591905b808211156124a1576000816000905550600101612489565b5090565b9056fea165627a7a723058201849f6f8ebc556cec5b57142d8be362134305a5f2a62420327c7c361df33f4a00029",
  "source": "// SPDX-License-Identifier: MIT\r\npragma solidity ^0.5.1;\r\n\r\n/**\r\n * @title VeriChain\r\n * @dev Document verification system with exporter management\r\n * @author VeriChain Team\r\n */\r\ncontract VeriChain {\r\n\r\n    // State variables\r\n    address public owner;\r\n    uint16 public count_Exporters = 0;\r\n    uint16 public count_hashes = 0;\r\n\r\n    // Structs\r\n    struct Record {\r\n        uint blockNumber; \r\n        uint minetime; \r\n        string info;\r\n        string ipfs_hash;\r\n    }\r\n\r\n    struct Exporter_Record {\r\n        uint blockNumber;\r\n        string info;\r\n    }\r\n\r\n    // Mappings\r\n    mapping(bytes32 => Record) private docHashes;\r\n    mapping(address => Exporter_Record) private Exporters;\r\n\r\n    // Events\r\n    event AddHash(address indexed _exporter, string _ipfsHash);\r\n    event ExporterAdded(address indexed _exporter, string _info);\r\n    event ExporterRemoved(address indexed _exporter);\r\n    event ExporterModified(address indexed _exporter, string _newInfo);\r\n    event OwnershipTransferred(address indexed previousOwner, address indexed newOwner);\r\n\r\n    // Modifiers\r\n    modifier onlyOwner() {\r\n        require(msg.sender == owner, \"Caller is not the owner\");\r\n        _;\r\n    }\r\n\r\n    modifier validAddress(address _addr) {\r\n        require(_addr != address(0), \"Invalid address\");\r\n        _;\r\n    }\r\n\r\n    modifier authorised_Exporter(bytes32 _doc) {\r\n        require(\r\n            keccak256(abi.encodePacked(Exporters[msg.sender].info)) ==\r\n            keccak256(abi.encodePacked(docHashes[_doc].info)),\r\n            \"Caller is not authorised to edit this document\"\r\n        );\r\n        _;\r\n    }\r\n\r\n    modifier canAddHash() {\r\n        require(Exporters[msg.sender].blockNumber != 0, \"Caller not authorised to add documents\");\r\n        _;\r\n    }\r\n\r\n    /**\r\n     * @dev Constructor sets the original owner of the contract to the sender account\r\n     */\r\n    constructor() public {\r\n        owner = msg.sender;\r\n    }\r\n\r\n    // -------------------- Exporter Management -------------------- //\r\n\r\n    /**\r\n     * @dev Add a new exporter (only owner)\r\n     * @param _add Address of the exporter to add\r\n     * @param _info Information about the exporter\r\n     */\r\n    function add_Exporter(address _add, string memory _info) public onlyOwner validAddress(_add) {\r\n        require(Exporters[_add].blockNumber == 0, \"Exporter already exists\");\r\n        require(bytes(_info).length > 0, \"Exporter info cannot be empty\");\r\n\r\n        Exporters[_add].blockNumber = block.number;\r\n        Exporters[_add].info = _info;\r\n        count_Exporters++;\r\n\r\n        emit ExporterAdded(_add, _info);\r\n    }\r\n\r\n    /**\r\n     * @dev Delete an exporter (only owner)\r\n     * @param _add Address of the exporter to delete\r\n     */\r\n    function delete_Exporter(address _add) public onlyOwner validAddress(_add) {\r\n        require(Exporters[_add].blockNumber != 0, \"Exporter does not exist\");\r\n\r\n        Exporters[_add].blockNumber = 0;\r\n        Exporters[_add].info = \"\";\r\n        count_Exporters--;\r\n\r\n        emit ExporterRemoved(_add);\r\n    }\r\n\r\n    /**\r\n     * @dev Modify exporter information (only owner)\r\n     * @param _add Address of the exporter to modify\r\n     * @param _newInfo New information for the exporter\r\n     */\r\n    function alter_Exporter(address _add, string memory _newInfo) public onlyOwner validAddress(_add) {\r\n        require(Exporters[_add].blockNumber != 0, \"Exporter does not exist\");\r\n        require(bytes(_newInfo).length > 0, \"Exporter info cannot be empty\");\r\n\r\n        Exporters[_add].info = _newInfo;\r\n\r\n        emit ExporterModified(_add, _newInfo);\r\n    }\r\n\r\n    /**\r\n     * @dev Transfer ownership of the contract (only owner)\r\n     * @param _newOwner Address of the new owner\r\n     */\r\n    function changeOwner(address _newOwner) public onlyOwner validAddress(_newOwner) {\r\n        require(_newOwner != owner, \"New owner must be different from current owner\");\r\n\r\n        address previousOwner = owner;\r\n        owner = _newOwner;\r\n\r\n        emit OwnershipTransferred(previousOwner, _newOwner);\r\n    }\r\n\r\n    // -------------------- Document Management -------------------- //\r\n\r\n    /**\r\n     * @dev Add a document hash (only authorized exporters)\r\n     * @param _hash Document hash to add\r\n     * @param _ipfs IPFS hash of the document\r\n     */\r\n    function addDocHash(bytes32 _hash, string memory _ipfs) public canAddHash {\r\n        require(_hash != bytes32(0), \"Hash cannot be empty\");\r\n        require(bytes(_ipfs).length > 0, \"IPFS hash cannot be empty\");\r\n        require(docHashes[_hash].blockNumber == 0 && docHashes[_hash].minetime == 0, \"Hash already exists\");\r\n\r\n        Record memory newRecord = Record(\r\n            block.number,\r\n            now, // Using 'now' for Solidity 0.5.1 compatibility\r\n            Exporters[msg.sender].info,\r\n            _ipfs\r\n        );\r\n        docHashes[_hash] = newRecord;\r\n        count_hashes++;\r\n\r\n        emit AddHash(msg.sender, _ipfs);\r\n    }\r\n\r\n    /**\r\n     * @dev Find a document by hash\r\n     * @param _hash Document hash to find\r\n     * @return blockNumber Block number when document was added\r\n     * @return minetime Timestamp when document was added\r\n     * @return info Exporter information\r\n     * @return ipfs_hash IPFS hash of the document\r\n     */\r\n    function findDocHash(bytes32 _hash) public view returns (uint, uint, string memory, string memory) {\r\n        Record memory r = docHashes[_hash];\r\n        return (r.blockNumber, r.minetime, r.info, r.ipfs_hash);\r\n    }\r\n\r\n    /**\r\n     * @dev Delete a document hash (only authorized exporter who added it)\r\n     * @param _hash Document hash to delete\r\n     */\r\n    function deleteHash(bytes32 _hash) public authorised_Exporter(_hash) canAddHash {\r\n        require(docHashes[_hash].minetime != 0, \"Document does not exist\");\r\n        require(_hash != bytes32(0), \"Hash cannot be empty\");\r\n\r\n        docHashes[_hash].blockNumber = 0;\r\n        docHashes[_hash].minetime = 0;\r\n        docHashes[_hash].info = \"\";\r\n        docHashes[_hash].ipfs_hash = \"\";\r\n        count_hashes--;\r\n    }\r\n\r\n    /**\r\n     * @dev Get exporter information\r\n     * @param _add Address of the exporter\r\n     * @return info Information about the exporter\r\n     */\r\n    function getExporterInfo(address _add) public view returns (string memory) {\r\n        return Exporters[_add].info;\r\n    }\r\n\r\n    /**\r\n     * @dev Check if an address is an authorized exporter\r\n     * @param _add Address to check\r\n     * @return true if address is an authorized exporter\r\n     */\r\n    function isExporter(address _add) public view returns (bool) {\r\n        return Exporters[_add].blockNumber != 0;\r\n    }\r\n\r\n    /**\r\n     * @dev Get contract statistics\r\n     * @return exporterCount Number of exporters\r\n     * @return hashCount Number of document hashes\r\n     */\r\n    function getStats() public view returns (uint16, uint16) {\r\n        return (count_Exporters, count_hashes);\r\n    }\r\n\r\n    /**\r\n     * @dev Check if a document hash exists\r\n     * @param _hash Document hash to check\r\n     * @return true if document exists\r\n     */\r\n    function documentExists(bytes32 _hash) public view returns (bool) {\r\n        return docHashes[_hash].minetime != 0;\r\n    }\r\n}",
  "sourcePath": "C:\\Users\\Lenovo\\Desktop\\document-Dapp\\contracts\\VeriChain.sol",
  "compiler": {
    "name": "solc",
    "version": "0.5.1+commit.c8a2cb62.Emscripten.clang"
  },
  "schemaVersion": "3.4.16",
  "updatedAt": "2025-09-24T10:10:31.641Z",
  "networkType": "ethereum",
  "devdoc": {
    "author": "VeriChain Team\r",
    "details": "Document verification system with exporter management\r",
    "methods": {
      "addDocHash(bytes32,string)": {
        "details": "Add a document hash (only authorized exporters)\r",
        "params": {
          "_hash": "Document hash to add\r",
          "_ipfs": "IPFS hash of the document\r"
        }
      },
      "add_Exporter(address,string)": {
        "details": "Add a new exporter (only owner)\r",
        "params": {
          "_add": "Address of the exporter to add\r",
          "_info": "Information about the exporter\r"
        }
      },
      "alter_Exporter(address,string)": {
        "details": "Modify exporter information (only owner)\r",
        "params": {
          "_add": "Address of the exporter to modify\r",
          "_newInfo": "New information for the exporter\r"
        }
      },
      "changeOwner(address)": {
        "details": "Transfer ownership of the contract (only owner)\r",
        "params": {
          "_newOwner": "Address of the new owner\r"
        }
      },
      "constructor": {
        "details": "Constructor sets the original owner of the contract to the sender account\r"
      },
      "deleteHash(bytes32)": {
        "details": "Delete a document hash (only authorized exporter who added it)\r",
        "params": {
          "_hash": "Document hash to delete\r"
        }
      },
      "delete_Exporter(address)": {
        "details": "Delete an exporter (only owner)\r",
        "params": {
          "_add": "Address of the exporter to delete\r"
        }
      },
      "documentExists(bytes32)": {
        "details": "Check if a document hash exists\r",
        "params": {
          "_hash": "Document hash to check\r"
        },
        "return": "true if document exists\r"
      },
      "findDocHash(bytes32)": {
        "details": "Find a document by hash\r",
        "params": {
          "_hash": "Document hash to find\r"
        },
        "return": "blockNumber Block number when document was added\rminetime Timestamp when document was added\rinfo Exporter information\ripfs_hash IPFS hash of the document\r"
      },
      "getExporterInfo(address)": {
        "details": "Get exporter information\r",
        "params": {
          "_add": "Address of the exporter\r"
        },
        "return": "info Information about the exporter\r"
      },
      "getStats()": {
        "details": "Get contract statistics\r",
        "return": "exporterCount Number of exporters\rhashCount Number of document hashes\r"
      },
      "isExporter(address)": {
        "details": "Check if an address is an authorized exporter\r",
        "params": {
          "_add": "Address to check\r"
        },
        "return": "true if address is an authorized exporter\r"
      }
    },
    "title": "VeriChain\r"
  },
  "userdoc": {
    "methods": {}
  }
}